:0300000002077282
:0C077200787FE4F6D8FD75812502046252
:0C077E0054656D706572617475726500E1
:100462001207657FE812073112071D7BFF7A0779B1
:100472007E7D017F0112062A1206F012076512051F
:10048200FF8F258E248D238C22E4FFFEFDFCAB25FD
:10049200AA24A923A8221201A9501E7B2D7D017F27
:1004A20002120794AF25AE24AD23AC221202228F92
:1004B200258E248D238C2280097B2B7D017F0212C5
:1004C2000794AF25AE24AD23AC22120271AB07AA6A
:1004D20006750C037D027F0212066B7B2E7D057F63
:1004E200021207947F007E407D1C7C46AB25AA2425
:1004F200A923A822120003120271E47B107A27F9C1
:10050200F81203C2750C047D067F0212066BAF253A
:0F051200AE24AD23AC2212027112079E02047AAE
:10073100EFD39400400C007E027DC7DDFEDEFC1F7E
:0207410080EE48
:010743002293
:06075600C2A58F80D2A7AE
:08075C007F027EEFDEFEDFFCF0
:010764002272
:0A078A00C2A6120756C2A702075CC0
:10064D00CFCDCFCECCCE1203317C007D0A1203313B
:04065D00ED2430FF59
:0A066100D2A6120756C2A702075CDA
:10070700AE07BE0104ED148006BE0209ED243F4486
:0607170080FF12078A2298
:10071D007F3812078A7F0C12078A7F0612078A7F9D
:04072D000102078A34
:0A079400AC03120707AF0402066170
:06062A008B088A09890A11
:10063000120707E4FDAB08AA09A90A8D8275830099
:0C0640001202F2FF60061206610D80E954
:01064C00228B
:0C05CC007F0AEA24FFFDE434FFFC7E00FF
:0805D8008E0D8F0E8C0F8D10AB
:1005E0007F017E00E4FBEBC39510E50F6480F87497
:0E05F0008098500AAC0DAD0E12031F0B80E870
:0105FE0022DA
:04066B008A0A8B0B61
:10066F00120707AA0CEAD39400400D1205CCAC0A6E
:08067F00AD0B12064D1A80EDCF
:010687002250
:10052100120707C3EA64809480400B7F2B12066197
:100531008A168B17800E7F2D120661C3E49BF51777
:10054100E49AF516AA15EAD39400400D1205CCAC35
:0905510016AD1712064D1A80EDDB
:01055A00227E
:04055B008A1A8B1B52
:10055F00120707AA1CEAD3940040297F101205CE78
:10056F00AC1AAD1BCFCDCFCECCCE120331EF540F83
:10057F00FEC3940AEE5004243080022437FF120683
:04058F00611A80D19C
:010593002245
:040594008A1F8B200F
:10059800120707AA21EAD394004028EA24FFFDE4C1
:1005A80034FFFC7F027E001205D8AC1FAD20CFCDF2
:1005B800CFCECCCE120331EF54012430FF120661A6
:0305C8001A80D2C4
:0105CB00220D
:1006A500D2B7C2B77FF7DFFED2B77F20DFFEA2B792
:0906B500E433FE7FF7DFFEAF061F
:0106BE002219
:10074400C2B77E04DEFEEF24FF92B77E18DEFED22F
:01075400B7ED
:010755002281
:1006D800C2B77F02DFFED2B77F02DFFEA2B7E433E4
:0706E800FE7F18DFFEAF06E4
:0106EF0022E8
:0206BF00AD0785
:1006C100E4FCA8047401088002C333D8FC5DFF1266
:0606D10007440CBC08EC1C
:0106D7002200
:10068800E4FDFC1206D8EF600DA80474010880028E
:0C069800C333D8FC42050CBC08E9AF05D8
:0106A4002233
:0D0765001206A57FCC1206BF7F440206BF1E
:1005FF001206A57FCC1206BF7FBE1206BF12068859
:10060F008F08120688EFFEE508FFFDAC06EC12021C
:0B061F0038E4FBFA7980784102010CFE
:1006F00075984043878053890F438920758BF37524
:070700008DF3C2ABD28E2283
:08079E008F993099FDC29922E8
:10000300EC4D6011E8497017ED33EC3304600DE4F7
:10001300FCFFFEFD22E933E8330470F80202DD122F
:1000230002A858046009E4CC248150062850090230
:1000330002E72840030202E4C0E0EB4A7044B980BF
:1000430006D0E0FB0202D3EF4E701CBD8008EBFF2D
:10005300EAFEE9FD80EBE98DF0A4FEE5F00200EC99
:10006300E9CDF9EAFEEBFFEF89F0A4FCE5F0CE89D8
:10007300F0A42EFFE435F0CD89F0A42DFEE435F095
:100083008067EF4E7005BD80D780C3EF8BF0A4ACC3
:10009300F0EE8BF0A42CFCE435F0F8EF8AF0A42CFE
:1000A300E5F038FCE433CB8DF0A42CFCE5F03BF811
:1000B300EE8AF0A42CFCE5F038F8E433CF89F0A401
:1000C3002CFCE5F038CF3400CE89F0A42FFFE5F007
:1000D3003EFEE433C98DF0A42EFEE5F039CD8AF05F
:1000E300A42FFFE5F03EFEE43DFD33D0E0FB5007D7
:1000F3000BBB000F0202E7EC2CFCEF33FFEE33FEE9
:06010300ED33FD0202BF16
:100109000202E7EC5D046005E8590470030202DDB0
:100119001202A8580460F6EC4860F2EC7004FDFE87
:10012900FF22C860DB2481C85009C39860025006C9
:100139000202E49850CAF582E9294B4A7005AB825C
:100149000202D375F0007C1A7880C3EF9BEE9AED1A
:1001590099400DC3EF9BFFEE9AFEED99FDE842F041
:10016900DC23ACF0D0E0FFD0E0FED0E0FDAB822094
:10017900E7101BEB60BAEC2CFCEF33FFEE33FEED1E
:1001890033FD0202BFE803F830E705C0F075F0005F
:10019900EF2FFFEE33FEED33FD40B830E7C280AA02
:1001A90074F8CC6480CCC86480C8F58204604FC3FD
:1001B900EB9FF5F0EA9E42F0E99D42F0E89C45F09C
:1001C900603C501DE5825FFFE582D313CB5BCBF426
:1001D9002B5582FB50280ABA002409B9002008804F
:1001E9001DE5825BFBE582D313CF5FCFF4C3132FE9
:1001F9005582FF50090EBE00050DBD00010CC3EB71
:100209009FF5F0EA9E42F0E99D42F0E89C45F060D6
:0902190007CC4820E701B3EC22F8
:10022200ED33EC33600A047003BD8004ECB2E7FCEA
:0102320022A9
:1002330075F020800E75F010800575F0087D007E46
:10024300007F003392D530D503120454EC334010B1
:10025300EF33FFEE33FEED33FDEC33FCD5F0ED224F
:0E026300E5F0247EA2D513CC92E7CDCEFF228B
:10027100EDD2E7CD33EC3392D524814006E4FFFE85
:10028100FDFC22FCE4CFCECDCC24E0501174FF80E4
:10029100EDC3CC13CCCD13CDCE13CECF13CF047081
:0702A100F030D5DE02045429
:1002A800E9D2E7C933E833F892D5EDD2E7CD33EC9C
:0702B80033FC5002B2D52215
:1002BF00EC30E7100FBF000C0EBE00080DBD0004A0
:1002CF000BEB6014A2D5EB13FCED92E7FD2274FF4C
:1002DF00FCFDFEFF22E480F8A2D574FF13FC7D80A5
:0302EF00E480EFB9
:1002F200BB010CE58229F582E5833AF583E02250C1
:1003020006E92582F8E622BBFE06E92582F8E2220A
:0D031200E58229F582E5833AF583E4932224
:10031F00EF8DF0A4A8F0CF8CF0A428CE8DF0A42EF2
:02032F00FE22AC
:10033100BC000BBE0029EF8DF084FFADF022E4CCB0
:10034100F875F008EF2FFFEE33FEEC33FCEE9DEC79
:10035100984005FCEE9DFE0FD5F0E9E4CEFD22EDBF
:10036100F8F5F0EE8420D21CFEADF075F008EF2F09
:10037100FFED33FD4007985006D5F0F222C398FDFA
:050381000FD5F0EA2297
:1003860075F008758200EF2FFFEE33FECD33CDCC2E
:1003960033CCC58233C5829BED9AEC99E5829840B1
:1003A6000CF582EE9BFEED9AFDEC99FC0FD5F0D68E
:1003B600E4CEFBE4CDFAE4CCF9A88222B800C1B9B8
:1003C6000059BA002DEC8BF084CFCECDFCE5F0CBF6
:1003D600F97818EF2FFFEE33FEED33FDEC33FCEB2F
:1003E60033FB10D703994004EB99FB0FD8E5E4F9EA
:1003F600FA227818EF2FFFEE33FEED33FDEC33FCD7
:10040600C933C910D7059BE99A4007EC9BFCE99ACA
:10041600F90FD8E0E4C9FAE4CCFB2275F010EF2F0F
:10042600FFEE33FEED33FDCC33CCC833C810D7070F
:100436009BEC9AE899400AED9BFDEC9AFCE899F84A
:0E0446000FD5F0DAE4CDFBE4CCFAE4C8F922DD
:0E045400C3E49FFFE49EFEE49DFDE49CFC22B9
:00000001FF
